{
  "abi": [
    {
      "inputs": [
        {
          "internalType": "string",
          "name": "name",
          "type": "string"
        },
        {
          "internalType": "string",
          "name": "symbol",
          "type": "string"
        },
        {
          "internalType": "string",
          "name": "baseURI",
          "type": "string"
        },
        {
          "internalType": "address",
          "name": "claimVerifier",
          "type": "address"
        }
      ],
      "stateMutability": "nonpayable",
      "type": "constructor"
    },
    {
      "anonymous": false,
      "inputs": [
        {
          "indexed": true,
          "internalType": "address",
          "name": "owner",
          "type": "address"
        },
        {
          "indexed": true,
          "internalType": "address",
          "name": "spender",
          "type": "address"
        },
        {
          "indexed": true,
          "internalType": "uint256",
          "name": "id",
          "type": "uint256"
        }
      ],
      "name": "Approval",
      "type": "event"
    },
    {
      "anonymous": false,
      "inputs": [
        {
          "indexed": true,
          "internalType": "address",
          "name": "owner",
          "type": "address"
        },
        {
          "indexed": true,
          "internalType": "address",
          "name": "operator",
          "type": "address"
        },
        {
          "indexed": false,
          "internalType": "bool",
          "name": "approved",
          "type": "bool"
        }
      ],
      "name": "ApprovalForAll",
      "type": "event"
    },
    {
      "anonymous": false,
      "inputs": [
        {
          "indexed": true,
          "internalType": "address",
          "name": "from",
          "type": "address"
        },
        {
          "indexed": true,
          "internalType": "address",
          "name": "to",
          "type": "address"
        },
        {
          "indexed": true,
          "internalType": "uint256",
          "name": "id",
          "type": "uint256"
        }
      ],
      "name": "Transfer",
      "type": "event"
    },
    {
      "inputs": [
        {
          "internalType": "address",
          "name": "spender",
          "type": "address"
        },
        {
          "internalType": "uint256",
          "name": "id",
          "type": "uint256"
        }
      ],
      "name": "approve",
      "outputs": [],
      "stateMutability": "nonpayable",
      "type": "function"
    },
    {
      "inputs": [
        {
          "internalType": "address",
          "name": "owner",
          "type": "address"
        }
      ],
      "name": "balanceOf",
      "outputs": [
        {
          "internalType": "uint256",
          "name": "",
          "type": "uint256"
        }
      ],
      "stateMutability": "view",
      "type": "function"
    },
    {
      "inputs": [
        {
          "internalType": "address",
          "name": "claimer",
          "type": "address"
        }
      ],
      "name": "claim",
      "outputs": [],
      "stateMutability": "nonpayable",
      "type": "function"
    },
    {
      "inputs": [],
      "name": "claimVerifier",
      "outputs": [
        {
          "internalType": "address",
          "name": "",
          "type": "address"
        }
      ],
      "stateMutability": "view",
      "type": "function"
    },
    {
      "inputs": [
        {
          "internalType": "uint256",
          "name": "",
          "type": "uint256"
        }
      ],
      "name": "getApproved",
      "outputs": [
        {
          "internalType": "address",
          "name": "",
          "type": "address"
        }
      ],
      "stateMutability": "view",
      "type": "function"
    },
    {
      "inputs": [
        {
          "internalType": "address",
          "name": "",
          "type": "address"
        }
      ],
      "name": "hasClaimed",
      "outputs": [
        {
          "internalType": "bool",
          "name": "",
          "type": "bool"
        }
      ],
      "stateMutability": "view",
      "type": "function"
    },
    {
      "inputs": [
        {
          "internalType": "address",
          "name": "",
          "type": "address"
        },
        {
          "internalType": "address",
          "name": "",
          "type": "address"
        }
      ],
      "name": "isApprovedForAll",
      "outputs": [
        {
          "internalType": "bool",
          "name": "",
          "type": "bool"
        }
      ],
      "stateMutability": "view",
      "type": "function"
    },
    {
      "inputs": [],
      "name": "name",
      "outputs": [
        {
          "internalType": "string",
          "name": "",
          "type": "string"
        }
      ],
      "stateMutability": "view",
      "type": "function"
    },
    {
      "inputs": [],
      "name": "nonce",
      "outputs": [
        {
          "internalType": "uint256",
          "name": "",
          "type": "uint256"
        }
      ],
      "stateMutability": "view",
      "type": "function"
    },
    {
      "inputs": [
        {
          "internalType": "uint256",
          "name": "id",
          "type": "uint256"
        }
      ],
      "name": "ownerOf",
      "outputs": [
        {
          "internalType": "address",
          "name": "owner",
          "type": "address"
        }
      ],
      "stateMutability": "view",
      "type": "function"
    },
    {
      "inputs": [
        {
          "internalType": "address",
          "name": "from",
          "type": "address"
        },
        {
          "internalType": "address",
          "name": "to",
          "type": "address"
        },
        {
          "internalType": "uint256",
          "name": "id",
          "type": "uint256"
        }
      ],
      "name": "safeTransferFrom",
      "outputs": [],
      "stateMutability": "nonpayable",
      "type": "function"
    },
    {
      "inputs": [
        {
          "internalType": "address",
          "name": "from",
          "type": "address"
        },
        {
          "internalType": "address",
          "name": "to",
          "type": "address"
        },
        {
          "internalType": "uint256",
          "name": "id",
          "type": "uint256"
        },
        {
          "internalType": "bytes",
          "name": "data",
          "type": "bytes"
        }
      ],
      "name": "safeTransferFrom",
      "outputs": [],
      "stateMutability": "nonpayable",
      "type": "function"
    },
    {
      "inputs": [
        {
          "internalType": "address",
          "name": "operator",
          "type": "address"
        },
        {
          "internalType": "bool",
          "name": "approved",
          "type": "bool"
        }
      ],
      "name": "setApprovalForAll",
      "outputs": [],
      "stateMutability": "nonpayable",
      "type": "function"
    },
    {
      "inputs": [
        {
          "internalType": "bytes4",
          "name": "interfaceId",
          "type": "bytes4"
        }
      ],
      "name": "supportsInterface",
      "outputs": [
        {
          "internalType": "bool",
          "name": "",
          "type": "bool"
        }
      ],
      "stateMutability": "view",
      "type": "function"
    },
    {
      "inputs": [],
      "name": "symbol",
      "outputs": [
        {
          "internalType": "string",
          "name": "",
          "type": "string"
        }
      ],
      "stateMutability": "view",
      "type": "function"
    },
    {
      "inputs": [
        {
          "internalType": "uint256",
          "name": "id",
          "type": "uint256"
        }
      ],
      "name": "tokenURI",
      "outputs": [
        {
          "internalType": "string",
          "name": "",
          "type": "string"
        }
      ],
      "stateMutability": "view",
      "type": "function"
    },
    {
      "inputs": [
        {
          "internalType": "address",
          "name": "from",
          "type": "address"
        },
        {
          "internalType": "address",
          "name": "to",
          "type": "address"
        },
        {
          "internalType": "uint256",
          "name": "id",
          "type": "uint256"
        }
      ],
      "name": "transferFrom",
      "outputs": [],
      "stateMutability": "nonpayable",
      "type": "function"
    }
  ],
  "bytecode": {
    "object": "0x60a06040523480156200001157600080fd5b506040516200134738038062001347833981016040819052620000349162000207565b80848481600090805190602001906200004f92919062000094565b5080516200006590600190602084019062000094565b5050506001600160a01b031660805281516200008990600790602085019062000094565b5050505050620002f6565b828054620000a290620002ba565b90600052602060002090601f016020900481019282620000c6576000855562000111565b82601f10620000e157805160ff191683800117855562000111565b8280016001018555821562000111579182015b8281111562000111578251825591602001919060010190620000f4565b506200011f92915062000123565b5090565b5b808211156200011f576000815560010162000124565b634e487b7160e01b600052604160045260246000fd5b600082601f8301126200016257600080fd5b81516001600160401b03808211156200017f576200017f6200013a565b604051601f8301601f19908116603f01168101908282118183101715620001aa57620001aa6200013a565b81604052838152602092508683858801011115620001c757600080fd5b600091505b83821015620001eb5785820183015181830184015290820190620001cc565b83821115620001fd5760008385830101525b9695505050505050565b600080600080608085870312156200021e57600080fd5b84516001600160401b03808211156200023657600080fd5b620002448883890162000150565b955060208701519150808211156200025b57600080fd5b620002698883890162000150565b945060408701519150808211156200028057600080fd5b506200028f8782880162000150565b606087015190935090506001600160a01b0381168114620002af57600080fd5b939692955090935050565b600181811c90821680620002cf57607f821691505b602082108103620002f057634e487b7160e01b600052602260045260246000fd5b50919050565b60805161102e620003196000396000818161025301526104a4015261102e6000f3fe608060405234801561001057600080fd5b506004361061010b5760003560e01c806370a08231116100a2578063a93539d011610071578063a93539d01461024e578063affed0e014610275578063b88d4fde1461027e578063c87b56dd14610291578063e985e9c5146102a457600080fd5b806370a08231146101ef57806373b2e80e1461021057806395d89b4114610233578063a22cb4651461023b57600080fd5b80631e83409a116100de5780631e83409a146101a357806323b872dd146101b657806342842e0e146101c95780636352211e146101dc57600080fd5b806301ffc9a71461011057806306fdde0314610138578063081812fc1461014d578063095ea7b31461018e575b600080fd5b61012361011e366004610c54565b6102d2565b60405190151581526020015b60405180910390f35b610140610324565b60405161012f9190610c78565b61017661015b366004610ccd565b6004602052600090815260409020546001600160a01b031681565b6040516001600160a01b03909116815260200161012f565b6101a161019c366004610cfd565b6103b2565b005b6101a16101b1366004610d27565b610499565b6101a16101c4366004610d42565b61052d565b6101a16101d7366004610d42565b6106f4565b6101766101ea366004610ccd565b6107ec565b6102026101fd366004610d27565b610843565b60405190815260200161012f565b61012361021e366004610d27565b60066020526000908152604090205460ff1681565b6101406108a6565b6101a1610249366004610d7e565b6108b3565b6101767f000000000000000000000000000000000000000000000000000000000000000081565b61020260085481565b6101a161028c366004610dba565b61091f565b61014061029f366004610ccd565b610a07565b6101236102b2366004610e55565b600560209081526000928352604080842090915290825290205460ff1681565b60006301ffc9a760e01b6001600160e01b03198316148061030357506380ac58cd60e01b6001600160e01b03198316145b8061031e5750635b5e139f60e01b6001600160e01b03198316145b92915050565b6000805461033190610e88565b80601f016020809104026020016040519081016040528092919081815260200182805461035d90610e88565b80156103aa5780601f1061037f576101008083540402835291602001916103aa565b820191906000526020600020905b81548152906001019060200180831161038d57829003601f168201915b505050505081565b6000818152600260205260409020546001600160a01b0316338114806103fb57506001600160a01b038116600090815260056020908152604080832033845290915290205460ff165b61043d5760405162461bcd60e51b815260206004820152600e60248201526d1393d517d055551213d49256915160921b60448201526064015b60405180910390fd5b60008281526004602052604080822080546001600160a01b0319166001600160a01b0387811691821790925591518593918516917f8c5be1e5ebec7d5bd14f71427d1e84f3dd0314c0f7b2291e5b200ac8c7c3b92591a4505050565b336001600160a01b037f000000000000000000000000000000000000000000000000000000000000000016146105215760405162461bcd60e51b815260206004820152602760248201527f436c61696d4d616e616765723a2073656e646572206e6f7420636c61696d207660448201526632b934b334b2b960c91b6064820152608401610434565b61052a81610a85565b50565b6000818152600260205260409020546001600160a01b038481169116146105835760405162461bcd60e51b815260206004820152600a60248201526957524f4e475f46524f4d60b01b6044820152606401610434565b6001600160a01b0382166105cd5760405162461bcd60e51b81526020600482015260116024820152701253959053125117d49150d25412515395607a1b6044820152606401610434565b336001600160a01b038416148061060757506001600160a01b038316600090815260056020908152604080832033845290915290205460ff165b8061062857506000818152600460205260409020546001600160a01b031633145b6106655760405162461bcd60e51b815260206004820152600e60248201526d1393d517d055551213d49256915160921b6044820152606401610434565b6001600160a01b0380841660008181526003602090815260408083208054600019019055938616808352848320805460010190558583526002825284832080546001600160a01b03199081168317909155600490925284832080549092169091559251849392917fddf252ad1be2c89b69c2b068fc378daa952ba7f163c4a11628f55a4df523b3ef91a4505050565b6106ff83838361052d565b6001600160a01b0382163b15806107a85750604051630a85bd0160e11b8082523360048301526001600160a01b03858116602484015260448301849052608060648401526000608484015290919084169063150b7a029060a4016020604051808303816000875af1158015610778573d6000803e3d6000fd5b505050506040513d601f19601f8201168201806040525081019061079c9190610ec2565b6001600160e01b031916145b6107e75760405162461bcd60e51b815260206004820152601060248201526f155394d0519157d49150d2541251539560821b6044820152606401610434565b505050565b6000818152600260205260409020546001600160a01b03168061083e5760405162461bcd60e51b815260206004820152600a6024820152691393d517d3525395115160b21b6044820152606401610434565b919050565b60006001600160a01b03821661088a5760405162461bcd60e51b815260206004820152600c60248201526b5a45524f5f4144445245535360a01b6044820152606401610434565b506001600160a01b031660009081526003602052604090205490565b6001805461033190610e88565b3360008181526005602090815260408083206001600160a01b03871680855290835292819020805460ff191686151590811790915590519081529192917f17307eab39ab6107e8899845ad3d59bd9653f200f220920489ca2b5937696c31910160405180910390a35050565b61092a85858561052d565b6001600160a01b0384163b15806109c15750604051630a85bd0160e11b808252906001600160a01b0386169063150b7a02906109729033908a90899089908990600401610edf565b6020604051808303816000875af1158015610991573d6000803e3d6000fd5b505050506040513d601f19601f820116820180604052508101906109b59190610ec2565b6001600160e01b031916145b610a005760405162461bcd60e51b815260206004820152601060248201526f155394d0519157d49150d2541251539560821b6044820152606401610434565b5050505050565b6000818152600260205260409020546060906001600160a01b0316610a5b5760405162461bcd60e51b815260206004820152600a6024820152691393d50813525395115160b21b6044820152606401610434565b600782604051602001610a6f929190610f33565b6040516020818303038152906040529050919050565b6001600160a01b03811660009081526006602052604090205460ff1615610af85760405162461bcd60e51b815260206004820152602160248201527f436c61696d4d616e616765724d6f636b3a20616c726561647920636c61696d656044820152601960fa1b6064820152608401610434565b6001600160a01b0381166000908152600660205260408120805460ff191660011790556008805461052a92849290610b2f83610fd1565b919050556001600160a01b038216610b7d5760405162461bcd60e51b81526020600482015260116024820152701253959053125117d49150d25412515395607a1b6044820152606401610434565b6000818152600260205260409020546001600160a01b031615610bd35760405162461bcd60e51b815260206004820152600e60248201526d1053149150511657d3525395115160921b6044820152606401610434565b6001600160a01b038216600081815260036020908152604080832080546001019055848352600290915280822080546001600160a01b0319168417905551839291907fddf252ad1be2c89b69c2b068fc378daa952ba7f163c4a11628f55a4df523b3ef908290a45050565b6001600160e01b03198116811461052a57600080fd5b600060208284031215610c6657600080fd5b8135610c7181610c3e565b9392505050565b600060208083528351808285015260005b81811015610ca557858101830151858201604001528201610c89565b81811115610cb7576000604083870101525b50601f01601f1916929092016040019392505050565b600060208284031215610cdf57600080fd5b5035919050565b80356001600160a01b038116811461083e57600080fd5b60008060408385031215610d1057600080fd5b610d1983610ce6565b946020939093013593505050565b600060208284031215610d3957600080fd5b610c7182610ce6565b600080600060608486031215610d5757600080fd5b610d6084610ce6565b9250610d6e60208501610ce6565b9150604084013590509250925092565b60008060408385031215610d9157600080fd5b610d9a83610ce6565b915060208301358015158114610daf57600080fd5b809150509250929050565b600080600080600060808688031215610dd257600080fd5b610ddb86610ce6565b9450610de960208701610ce6565b935060408601359250606086013567ffffffffffffffff80821115610e0d57600080fd5b818801915088601f830112610e2157600080fd5b813581811115610e3057600080fd5b896020828501011115610e4257600080fd5b9699959850939650602001949392505050565b60008060408385031215610e6857600080fd5b610e7183610ce6565b9150610e7f60208401610ce6565b90509250929050565b600181811c90821680610e9c57607f821691505b602082108103610ebc57634e487b7160e01b600052602260045260246000fd5b50919050565b600060208284031215610ed457600080fd5b8151610c7181610c3e565b6001600160a01b038681168252851660208201526040810184905260806060820181905281018290526000828460a0840137600060a0848401015260a0601f19601f85011683010190509695505050505050565b600080845481600182811c915080831680610f4f57607f831692505b60208084108203610f6e57634e487b7160e01b86526022600452602486fd5b818015610f825760018114610f9357610fc0565b60ff19861689528489019650610fc0565b60008b81526020902060005b86811015610fb85781548b820152908501908301610f9f565b505084890196505b509785525050509301949350505050565b600060018201610ff157634e487b7160e01b600052601160045260246000fd5b506001019056fea2646970667358221220ae72843798f790378baa63636b01f7fddbbe257377f7eb92f7a35a641e501f6064736f6c634300080d0033",
    "linkReferences": {}
  }
}